S023000074696E7934355F63617270635F7077725F636F6E74726F6C6C65722E7372656311
S11300000EC028C027C026C04BC024C023C022C0B5
S113001021C020C01FC01EC01DC01CC01BC0112495
S11300201FBECFE5D1E0DEBFCDBF10E0A0E6B0E05B
S1130030E0E4F4E002C005900D92AC36B107D9F7C4
S113004020E0ACE6B0E001C01D92AA37B207E1F7A8
S113005062D1F4C1D5CF84E080936000C19A8091CD
S11300607100823018F082E08093790080917100F1
S1130070811103C083E080937900089586E0809322
S11300806000C09880916E008B3008F0C198809118
S11300906D008F3120F01092790010927100089554
S11300A01F920F920FB60F9211242F933F935F93D9
S11300B06F937F938F939F93AF93BF9380917800B7
S11300C0893109F4369A809178008B3708F465C039
S11300D0109278008091740090917500A091760040
S11300E0B09177000196A11DB11D80937400909387
S11300F07500A0937600B0937700B49B0EC0109265
S1130100700010926F00809171008F3FB9F0809160
S113011071008F5F8093710011C010927100809103
S11301206F0090917000019649F080916F0090915A
S1130130700001969093700080936F0024B135B1E4
S1130140932F80E0822B69E170E038D1880F892FEA
S1130150881F990B919580936C0080916C00843674
S113016050F480916E008F3F41F080916E008F5F5C
S113017080936E0002C010926E0080916C008F36E6
S113018050F080916D008F3F41F080916D008F5F42
S113019080936D0002C010926D00809160008330E6
S11301A0C9F020F4813049F050F450C0853059F141
S11301B0E0F0863009F04BC030C0C29A48C080914C
S11301C078006CE30DD1911101C0C29A809178003E
S11301D06AE715C0809178006EE102D1911101C0E7
S11301E0C29A809178006CE30AC0809178006AE03A
S11301F0F7D0911101C0C29A8091780064E1F0D0E7
S1130200911125C023C080917800811101C0C29A48
S1130210809178008130D9F419C0809178008823C6
S113022041F0809178008E3121F0809178008C33F8
S113023009F4C29A80917800813041F0809178006D
S11302408F3121F0809178008D3309F4C298809128
S113025078008F5F80937800809172009091730092
S1130260892B49F0809172009091730001979093CB
S1130270730080937200BF91AF919F918F917F9192
S11302806F915F913F912F910F900FBE0F901F9030
S113029018956A3071058105910540F0673F2FEF8D
S11302A0720729E08207910530F409C06AE070E022
S11302B080E090E004C066EF7FEF89E090E0F8947E
S11302C02AE030E040E050E097D030937300209370
S11302D07200789407C085B7806285BF889585B71A
S11302E08F7D85BF8091720090917300892B99F75F
S11302F0089587E087BB80E188BB86E080BF89B72B
S1130300846089BF85B7877E85BF83E086B987B956
S1130310379A78940895EDDF6CED75E080E090E015
S1130320B8DFE0917900F0E0EE0FFF1FEF59FF4FC7
S11303300190F081E02D09956AEF70E080E090E093
S1130340EFCF80916E008D3318F084E080937900B4
S1130350089583E08093600080917100882319F0F0
S113036081E08093790080916F00909170000397F1
S113037008F0C09880916F0090917000813B944088
S113038010F010927900DDCF82E080936000C09A73
S113039080917100811103C083E080937900D1CFF3
S11303A085E08093600088B38C7F88BB8091710066
S11303B0882319F081E080937900C3CF5527002466
S11303C080FF02C0060E571F660F771F6115710567
S11303D021F096958795009799F7952F802D08958C
S11303E0991B79E004C0991F961708F0961B881F83
S11303F07A95C9F780950895A1E21A2EAA1BBB1B12
S1130400FD010DC0AA1FBB1FEE1FFF1FA217B307DC
S1130410E407F50720F0A21BB30BE40BF50B661FF2
S1130420771F881F991F1A9469F7609570958095B6
S113043090959B01AC01BD01CF010895F894FFCFC5
S10F044006D0012B00C401A9013E0000FD
S9030000FC
